S01500007265616374696F6E5F67616D652E73726563C1
S11300001AC027C026C025C0E8C023C022C021C012
S113001020C01FC01EC0EFC01CC01BC01AC019C026
S113002018C017C016C0A0C0A2C0A5C0A8C0ABC04D
S1130030AEC0B1C0B3C011241FBECFEDCDBF20E010
S1130040A0E6B0E001C01D92A336B207E1F7C0D02C
S1130050E0C0D6CF80916200823031F128F4882349
S113006049F08130B1F008958430A1F140F1853038
S1130070E1F1089563D08032E9F78DE08EBD85E02B
S113008090E06BD083B38130E9F713BA80936200B8
S1130090089581E090E061D083B38130E9F713BA29
S11300A082E080936200089582E090E056D083B3AA
S11300B08130E9F713BA83E080936200089583E006
S11300C090E04BD083B38130E9F713BA84E0809396
S11300D06200089584E090E040D083B38130E9F772
S11300E013BA85E080936200089580E090E035D0F3
S11300F01EBC14BA80E090E024D084B38130E9F7C8
S113010086B3282F30E0309361002093600086FF8F
S113011007C014BA81E090E014D087E090E01DD0CD
S11301208091600087FF07C014BA81E090E009D095
S113013086E090E012D010926200089586B3807237
S11301400895009719F0019721F005C080EC80BD57
S1130150089510BC089510BC08958830910508F5E1
S1130160FC01ED5EFF4F099418BA12BA089581E0BC
S113017088BB82BB089582E088BB82BB089584E07B
S113018088BB82BB089588E088BB82BB08958FE05A
S113019088BB82BB08958FE088BB08958FE082BB43
S11301A0089518BA12BA08951FBC80ED93E09BBD60
S11301B08ABD89B7806489BF08958FE087BB81BBFE
S11301C018BA12BA0895F0DF80E28BBFF6DF089503
S11301D0F894F9DF78943EDFFECF1F920F920FB6AA
S11301E00F9211248F9381E083BB8F910F900FBEE8
S11301F00F901F9018951F920F920FB60F92112413
S11302008F9381E084BB8F910F900FBE0F901F904E
S10902101895F894FFCFDD
S9030000FC
